:020000040800F2
:10000000200600209D010008DB2A00085D2700086B
:10001000D92A0008810800084932000800000000C1
:10002000000000000000000000000000E32A0008BB
:10003000C508000800000000E12A0008E52A0008C1
:10004000B7010008B7010008B7010008B7010008B0
:10005000B7010008B7010008B7010008B7010008A0
:10006000B7010008B7010008B7010008B701000890
:10007000B7010008B7010008B7010008B701000880
:10008000B7010008B70100084D070008B7010008D4
:10009000B7010008B7010008B7010008B701000860
:1000A000B7010008B7010008B7010008892B000854
:1000B000952B0008B7010008B7010008B701000838
:1000C000B7010008B7010008B7010008B701000830
:1000D000B7010008DD310008B7010008B7010008CA
:1000E000B7010008B7010008B7010008B701000810
:1000F000B7010008B7010008B7010008B701000800
:10010000B7010008B7010008B7010008B7010008EF
:10011000B7010008B7010008A12B0008B7010008CB
:10012000B7010008B7010008B7010008B7010008CF
:10013000B7010008B7010008B7010008B7010008BF
:10014000B7010008B7010008B7010008B7010008AF
:10015000B7010008B7010008B7010008B70100089F
:10016000B7010008B7010008B7010008B70100088F
:10017000B7010008B7010008B7010008000000003F
:10018000B7010008B7010008DFF80CD000F05CFAF6
:1001900000480047493E00082006002006488047E6
:1001A00006480047FEE7FEE7FEE7FEE7FEE7FEE75C
:1001B000FEE7FEE7FEE7FEE7792B0008890100086D
:1001C0002DE9F05F0546002092469B46884606468C
:1001D000814640241BE0284641464746224600F01F
:1001E0006AF853465A46C01A914110D31146184630
:1001F000224600F051F82D1A67EB01084F462246BF
:100200000120002100F048F817EB00094E41201EA4
:10021000A4F10104DFDC484631462A464346BDE8E6
:10022000F09FD2B201E000F8012B491EFBD27047CB
:100230000022F6E710B513460A4604461946FFF7B2
:10024000F0FF204610BD00F0004230F000400AD020
:10025000C10D01F56071C0F3160042EA0151C208F8
:1002600040071143704700200146704730B50B46E8
:10027000014600202022012409E021FA02F59D42D6
:1002800005D303FA02F5491B04FA02F52844151EAA
:10029000A2F10102F1DC30BD202A04DB203A00FA91
:1002A00002F1002070479140C2F1200320FA03F3CD
:1002B000194390407047202A04DB203A21FA02F0CB
:1002C0000021704721FA02F3D040C2F12002914090
:1002D0000843194670472DE9FE4F804681EA030026
:1002E000C00F0C46009021F0004123F00045B8EB10
:1002F0000200A94105D24046214690461C460B46C5
:10030000024623F00040104347D0270DC7F30A00F0
:10031000C3F30A510290401A019040286BDAC3F3EC
:10032000130040F4801B0098924620B10023D2EBCA
:10033000030A63EB0B0B01985946C0F1400250468B
:10034000FFF7AAFF06460D4650465946019A00F0AF
:100350008DF910EB08006141002487EA115284EA0C
:10036000E7731A4340D0009A62B3019A012A4FEA18
:10037000075215DC001B61EB02014FF0004202EA5C
:100380000752CDE90042001C41F5801132462B4650
:1003900000F08DF903B0BDE8F08F40462146F9E743
:1003A000001B61EB0201001C41F5801300185B414A
:1003B0002018A2F5001747EB030140EAD570B619E3
:1003C0006D4111E06D084FEA360645EAC0754FEA07
:1003D0000752001B61EB0201001C41F58011490826
:1003E0004FEA30000019514132462B4603B0BDE8B8
:1003F000F04F00F04DB90098012240000023D0EBEF
:10040000020263EBE073009821464FEAE074B8EB18
:10041000000061EB0401E9E783F000435BE781F052
:10042000004158E72DE9FE4F81EA030404F000443F
:1004300021F0004100944FF0000B23F0004350EAFC
:1004400001045ED052EA03045BD0C3F30A54C1F343
:100450000A552C44A4F2F3340194A0FB0254C1F3D6
:10046000130141F48011C3F3130343F4801301FB20
:10047000024400FB034E840A970A44EA815447EA87
:100480008357A4FB076802958D0A05FB07854FEA91
:10049000932C04FB0C542705029D4FEA065847EAAB
:1004A0001637B5EB08056EEB070C870E920E47EA80
:1004B000811742EA8312A7FB0201B6EB0B0164EB42
:1004C00000042B0D43EA0C335E1844EB1C50DA4653
:1004D0005146E7FB0201C5F313044FEA0B3343EA2D
:1004E00014534FEA0432019C43EA0603A4F10C04BE
:1004F0000294009CCDE900B400F0D9F803B0BDE847
:10050000F08F00200146F9E72DE9F04D81EA030460
:1005100004F0004B21F0004514464FF0000A23F090
:10052000004150EA050220D054EA01021DD0C5F373
:100530000A570246C5F31303C1F31300C1F30A5669
:1005400040F4801543F48013A7EB0608101BD64631
:1005500008F2FD3873EB050002D308F1010801E051
:1005600092185B41B8F1000F03DA00200146BDE8A4
:10057000F08D00204FF48011064684460EE0171BD4
:1005800073EB050705D3121B63EB050306434CEA27
:10059000010C49084FEA300092185B4150EA01070C
:1005A000EDD152EA030012D082EA040083EA050189
:1005B000084305D0101BAB4106D20122002306E000
:1005C00000224FF0004302E06FF0010253101AEBDB
:1005D00006004CEB085110EB0A0041EB0B01BDE8A3
:1005E000F04D00F055B8C1F30A52C1F3130140F2C7
:1005F000FF3341F480119A4202DA0020014670472D
:1006000040F233439A42A2F2334202DC5242FFF7F5
:1006100052BEFFF741BE000030B5041E71F1000468
:1006200004DB4FF00044404264EB0101141E73F1FF
:10063000000405DB1C464FF00043524263EB040309
:10064000994208BF904230BD064C074D06E0E06875
:1006500040F0010394E8070098471034AC42F6D309
:10066000FFF796FD9C3E0008BC3E0008202A06DBF2
:10067000CB17203A41FA02F043EAE07306E041FA70
:1006800002F3D040C2F1200291400843194670475E
:1006900010B5141E73F1000408DA401C41F100018A
:1006A00092185B411A4301D120F0010010BD2DE9E1
:1006B000F04D92469B4611B1B1FA81F202E0B0FAD8
:1006C00080F220329046FFF7E7FD04460F4640EAED
:1006D0000A0041EA0B0153465A46084313D011461B
:1006E00053EA010019D0C8F140025046FFF7E3FD7C
:1006F00005460E46504659464246FFF7CDFD084393
:1007000005D0012004E020463946BDE8F08D0020E8
:10071000054346EAE0762C4337430A986305E40A2A
:10072000A0EB08000022FD0A44EA47540A3002D533
:1007300000200146E9E7010510196941DDE9084596
:1007400000196941BDE8F04DA2E70000014800F042
:1007500084B900003C000020464910B54A6822F4E4
:1007600040324A604A6843681A434A6001684A68EE
:1007700022F480724A6001684A68036942EA0322EF
:100780004A6001684A6822F040724A6001684A681B
:1007900083681A434A6001688A6822F400628A60AA
:1007A00001688A68C3681A438A60816A6FF0706260
:1007B000D14201688A6822F070628A6001688A68A2
:1007C0000CD0836A1A438A6001688A6822F040521A
:1007D0008A6001688A68C36A1A4301E022F04052C5
:1007E0008A6001688A6822F002028A6001688A6869
:1007F000037E42EA43028A6090F8201000290168D3
:100800004A680FD042F400624A6001684A6822F4E4
:1008100060424A6001684A68174C436A04EB4333FC
:100820001A4301E022F400624A600168CA6A22F4B5
:100830007002CA620168CA6A838B104C04EB0353CE
:100840001A43CA6201688A6822F400728A600168E9
:100850008A6890F8303042EA43228A6001688A68E8
:1008600022F480628A6001688A68406942EA8020D6
:10087000886010BD0023014000E0FFFF0000F0FF92
:10088000FEE7000010B503F069FA0A4C02460AA11F
:1008900060800A4802F04CFD60886421484340F6BD
:1008A000FF71B0FBF1F00649C0B220700968C8635F
:1008B00010BD00002C00002025640000F80100207D
:1008C00020010020704772B6FEE7000005484FF493
:1008D000006102780448022A01D3012200E00022CC
:1008E00000F0F0BB2C000020000C02400248818880
:1008F000491C8180704700001000002070470000F4
:1009000078B50024009490F83C20012A19D00122E7
:1009100080F83C200A6807230568092A13D9EE6885
:100920000A3A02EB420293409E43EE600B788A68DB
:100930000A3B03EB43039A400368DD682A43DA600D
:1009400010E0022078BD2E6902EB420293409E43E4
:100950002E610B788A6803EB43039A4003681D6994
:100960002A431A614A681F23072A13D205686E6B4F
:10097000521E02EB820293409E436E630B790A88FB
:100980005B1E92B203EB83039A4003685D6B2A43BC
:100990005A6327E005680D2A12D22E6BD21F02EB94
:1009A000820293409E432E630B790A88DB1F92B22A
:1009B00003EB83039A4003681D6B2A431A6311E01B
:1009C000EE6A0D3A02EB820293409E43EE620B798F
:1009D0000A880D3B92B203EB83039A400368DD6AF9
:1009E0002A43DA62164B0568144A9D4206D10D6807
:1009F000122D03D1556845F48005556005689D4268
:100A000018D10B68102B01D0112B13D1536843F46C
:100A100000035360096810290CD10A490A4A096881
:100A2000B1FBF2F101EB8101490000E0491E0091A8
:100A30000029FBD180F83C40002078BD0023014014
:100A4000002001400C00002040420F00704770471A
:100A5000006C70470068C06C704770B50446006851
:100A60000668456816F0020F05F020012AD049B348
:100A7000216CC90603D4216C41F4007121648168A2
:100A800011F0405F17D1217EA9B9C16A11F4700F2E
:100A900002D0816849050ED4416821F020014160EF
:100AA000206C20F480702064206CC00403D4206C7F
:100AB00040F0010020642046FFF7C8FF21686FF076
:100AC0001200086016F0040F05F0800132D089B3DF
:100AD000206CC00603D4206C40F4005020642068D1
:100AE000816811F4401F1ED1816B11F4401F02D0A8
:100AF0008168490517D44168490514D4816811F00B
:100B0000405F10D1217E71B9416821F080014160C0
:100B1000206C20F480502064206CC00503D4206C2D
:100B200040F0010020642046FFF7E8FE21686FF0E6
:100B30000C00086016F0010F05F040010FD071B1F4
:100B400020680068C0070AD0206C40F48030206420
:100B5000204600F043F821686FF00100086016F0AD
:100B6000200F05F080610ED000290CD0606C40F0A1
:100B70000200606420686FF0200505602046FFF7E2
:100B800066FF2068056070BD70B504004FF0000579
:100B900003D0206C002610B107E0012070BD204674
:100BA00000F01EF8666484F83C60206CC00610D427
:100BB000206C20F4885040F0020020642046FFF7AB
:100BC000CBFD6664206C20F0020040F00100206440
:100BD00000E0012584F83C60284670BD70470000A5
:100BE00010B586B0044614216846FFF721FB15496D
:100BF0002068884224D114480021026842F480729F
:100C00000260006800F4807005900F481438026894
:100C100042F004020260006800F004000590012028
:100C200000900320CDE901016946084800F052F91F
:100C300000221146122000F0B1FB122000F0A0FBB0
:100C400006B010BD002001404438024000080240B8
:100C50002DE9F041044600680D4681684FF0000719
:100C600049050BD58068C00508D5206C40F02000F0
:100C7000206484F83C700120BDE8F08100F028FA7F
:100C8000064613E0681C11D025B100F021FA801B44
:100C9000A8420BD920680068800707D4206C40F078
:100CA0000400206484F83C700320E5E720680068B5
:100CB0008007E7D521686FF012000860206C40F4CF
:100CC000007020642068816811F0405F13D1217E9C
:100CD00089B9C16A11F4700F02D0806840050AD446
:100CE000206C20F480702064206CC00403D4206C3D
:100CF00040F0010020640020BEE7000018B500218C
:100D0000009190F83C20012A07D0012280F83C2075
:100D100002689368DB0702D011E0022018BD9368D7
:100D200043F0010393602E4A2E4B1268B2FBF3F29C
:100D300002EB420200E0521E0092002AFBD1026840
:100D40009368DB0742D0036C40F20164A34343F491
:100D50008073036453685B0505D5036C23F400536B
:100D600043F480530364036CDB0404D5436C23F029
:100D70000603436400E0416480F83C101A496FF0B8
:100D80002203136049680068CA06184906D08842E1
:100D900024D1816811F0405F13D01FE08842F8D061
:100DA000134A904203D1D1F80423D206F1D0114A5C
:100DB000904213D1D1F8041301F01F011029E8D398
:100DC0000CE0816841F08041816007E0016C41F0F6
:100DD00010010164416C41F001014164002018BD23
:100DE0000C00002040420F00002301400020014081
:100DF00000210140002201402DE9F0410446876DA9
:100E000000F066F9064694F835000025022806D061
:100E10008020606584F834500120BDE8F0812068AE
:100E2000016821F0160101602068416921F080010C
:100E30004161206C08B9A06C20B12068016821F0E4
:100E4000080101602068016821F0010101600CE0E7
:100E500000F03EF9801B052807D92020606503209B
:100E600084F8350084F83450D7E720680068C0075C
:100E7000EED194F85C103F208840B860012084F8DF
:100E8000350084F834500020C7E790F83510022967
:100E900003D08021416501207047052180F835107D
:100EA0000068016821F00101016000207047000026
:100EB00070B5044600F00CF90546601C02D00448E9
:100EC0000078044400F004F9401BA042FAD370BD3E
:100ED000000000202DE9F84FDFF8BCA10022012519
:100EE00003264FF00F090AF1040BAAF1040E00BF0C
:100EF0000B6805FA02F42340A34270D10F7907F082
:100F00000307012F01D0022F16D187684FEA42084C
:100F100006FA08FC27EA0C07D1F80CC00CFA08FC0A
:100F20004CEA070CC0F808C04768A7430C79C4F323
:100F3000001494403C4344600C79E443A4070AD075
:100F4000C4684FEA420C06FA0CF7BC438F6807FAF4
:100F50000CF72743C7600C7904F00304022C12D16C
:100F6000D40800EB840CDCF820405707FF0E09FA88
:100F700007F824EA0804D1F8108008FA07F848EACC
:100F80000408CCF8208004684FEA420C06FA0CF7FB
:100F9000BC430F7907F0030707FA0CF727430760F4
:100FA0004C6814F4403F70D03C4C276847F48047AD
:100FB0002760246822F0030704F480440094384C2E
:100FC00007EB040CDCF8084897074FEA177809FA92
:100FD00008F7BC43334FB84202D1002724E054E065
:100FE000314FB84201D101271EE0304FB84201D144
:100FF000022719E02E4FB84201D1032714E02D4FEC
:10100000B84201D104270FE02B4FB84201D1052788
:101010000AE02A4FB84201D1062705E0284FB8421E
:1010200001D1072700E0082707FA08F72743CCF883
:101030000878DAF800405746D1F804C09C435FEACC
:10104000CC2C00D51C433C60DBF800405F46D1F857
:1010500004C09C435FEA8C2C00D51C433C60DEF846
:1010600000407746D1F804C09C435FEA8C3C00D531
:101070001C433C60084F083F3C68D1F804C09C43C7
:101080005FEACC3C00D51C433C60521C102AFFF4A4
:101090002FAFBDE8F88F0000083C01404438024003
:1010A00000300140000002400004024000080240FD
:1010B000000C0240001002400014024000180240E0
:1010C000001C02400AB1816170470904FBE700007F
:1010D00001488068704700000000002070B50400DF
:1010E00025D094F83D00002520B984F83C502046D6
:1010F00000F0B8F8242084F83D002068016821F051
:10110000010101602068016841F40041016020682C
:10111000016821F40041016000F014FA4D4A616851
:10112000914201D84C4900E04C49884201D201204B
:1011300070BD4B492368B0FBF1F15E6826F03F06B5
:101140000E435E606368934206D94FF49673594329
:101150004FF47A73B1FBF3F12368491C1E6A26F041
:101160003F06314319626168914210D84900401E20
:10117000B0FBF1F2521CC2F30B02042A01D204208C
:1011800022E0B0FBF1F0401CC0F30B001CE0A268B1
:10119000F2B301EBC10303EB0116431EB3FBF6F3FD
:1011A0005B1C43F480431B0549D092B301EBC102A1
:1011B00002EB0111401EB0FBF1F0401CC0F30B002C
:1011C00040F4804040F400402168CA694CF6FF7347
:1011D0009A431043C861D4E90710014320680268AC
:1011E00022F0C00211430160D4E9030101432068E9
:1011F000826848F2FF339A4311438160D4E90501C4
:1012000008432168CA6822F0FF021043C86001E069
:101210000EE016E02068016841F0010101602564DC
:10122000202084F83D00256384F83E50002070BDE6
:1012300001EB4106431EB3FBF6F35B1CB3E7012051
:10124000C2E701EB4101401EB0FBF1F0401CC0F3CE
:101250000B00B7E7A086010080841E0000093D0056
:1012600040420F0010B586B0044614216846FEF7D0
:10127000DFFF13492068884220D11248002102680C
:1012800042F002020260006800F002000590C020F7
:1012900000901220CDE90101032003900420049066
:1012A00069460948FFF716FE06481030016841F408
:1012B00000110160006800F40010059006B010BD38
:1012C0000054004030380240000402400248816867
:1012D0000278114481607047000000200B4810B56F
:1012E000016841F400710160016841F480610160AE
:1012F000016841F480710160032000F06FF80F2055
:1013000000F006F800F024F8002010BD003C024078
:1013100070B50D4D04464FF47A712878B1FBF0F0AA
:101320000A490968B1FBF0F000F020FB48B9102C25
:1013300007D200222146501E00F030F800206C60D9
:1013400070BD012070BD0000000000200C000020D6
:101350000A4808B5016841F480410160006800F462
:10136000804000900548001F016841F080510160F5
:10137000006800F08050009008BD00004438024032
:10138000002809DB00F01F02012191404009800084
:1013900000F1E020C0F8001170470000F0B40E4BDF
:1013A0001B680C46C3F30223C3F10705042D00D9C3
:1013B0000425191D072901D2002300E0DB1E0126A8
:1013C00006FA05F1491E214099409E40761E1640BE
:1013D0003143F0BC01F0C0BF0CED00E0064900F065
:1013E000070208684FF6FF03184040EA0220034A4C
:1013F00010430860704700000CED00E00000FA05A3
:10140000704700002DE9F0470E46050065D0DFF873
:101410001481D8F80000F7B200F00700B04207D2FC
:1014200088F80070D8F8000000F00700B04254D1EE
:1014300028683D4C810712D5400703D5206840F449
:10144000E05020602878000703D5206840F4604011
:1014500020602068A96820F0F00008432060287808
:10146000C0072DD0304968680839012812D00228F9
:1014700013D0032811D00968890700292DDA2168C3
:1014800021F0030101432160FFF722FE814641F272
:10149000883A0EE009688903EFE709688901ECE7FB
:1014A000FFF716FEA0EB0901514502D90320BDE864
:1014B000F0872068696800F00C00B0EB810FEFD175
:1014C000D8F80010404601F00701B14207D9077073
:1014D000006800F00700B04201D00120E7E728785B
:1014E000400705D52068E96820F4E05008432060F3
:1014F0002878000706D52068296920F4604040EA72
:10150000C100206000F03EF82168084AC1F30311D1
:10151000515CC8400649086006480068FFF7F8FEBD
:101520000020C4E7003C024008380240723E000838
:101530000C0000200400002001490120C86470470D
:10154000000047420448054900680968044AC1F39D
:101550008221515CC84070470C00002008380240CE
:10156000823E00080448054900680968044AC1F33E
:101570004231515CC84070470C00002008380240DE
:10158000823E0008154810B5006810F00C0214489F
:1015900013D04110042A0FD0082A0ED10F4C241F5B
:1015A0002268236802F03F025B0207D52068C0F37F
:1015B0008810A0FB010106E0084610BD2168C1F3B8
:1015C0008811A1FB00010023FEF7FAFD2168C1F399
:1015D0000141491C4900B0FBF1F010BD0838024040
:1015E0000024F400054810B50068000605D5FFF793
:1015F00007FF02498020891C087010BD0C3802408A
:101600002DE9F84F04006ED02078DFF84C93C00726
:10161000A9F104054AD009F104000168C1F3810170
:10162000012908D00068C0F3810002280AD1D9F846
:101630000000400206D52868800337D5606800287E
:10164000E1D033E06068B0F5803F10D0B0F5A02F56
:10165000286810D020F480302860286820F480208A
:1016600028606068A8B1FFF733FD06460DE02868E2
:1016700040F48030F4E740F480202860F7E700BFB2
:10168000FFF726FD801B642873D828688003F7D5F0
:101690000CE0FFF71DFD064605E000BFFFF718FD53
:1016A000801B6428F0D828688003F7D42078DFF8FE
:1016B000AC8280074FF0000A3ED5A748001D0168A4
:1016C00011F00C0F08D00068C0F3810002280BD184
:1016D000D9F80000400207D42868800716D5E068D2
:1016E000012800D112E033E1E068B8B10120C8F868
:1016F0000000FFF7EDFC064605E000BFFFF7E8FC41
:10170000801B0228C0D828688007F7D5286821697F
:1017100020F0F80040EAC10028600DE0C8F800A001
:10172000FFF7D6FC064604E0FFF7D2FC801B022838
:101730001FD828688007F7D42078000722D5864F65
:1017400087486169703771B101210160FFF7C0FC02
:10175000064604E0FFF7BCFC801B022809D8386865
:101760008007F7D50EE0C0F800A0FFF7B1FC0646F1
:1017700005E082E0FFF7ACFC801B02287DD83868CA
:101780008007F7D42078400768D5DFF8CCB1002770
:101790000BF13C0BDBF80000C0000BD4DBF80010B1
:1017A00041F08051CBF80010DBF80000012700F079
:1017B000805000906B4E3068C00510D4306840F403
:1017C00080703060FFF784FC009005E0FFF780FC3C
:1017D0000099401A022850D83068C005F6D55E4EF0
:1017E000A0686C3601280FD00528306810D020F092
:1017F00001003060306820F004003060A068B8B1AB
:10180000FFF766FC00900FE0306840F00100F4E75D
:1018100040F004003060F7E7FFF75AFC0099411AE6
:1018200041F28830814266D830688007F4D50EE0F6
:10183000FFF74EFC009007E0FFF74AFC0099411AC1
:1018400041F28830814256D830688007F4D42FB1F5
:10185000DBF8001021F08051CBF80010A069C8B36C
:101860003D49091D0968C1F3810102294AD00228B6
:10187000504607D0C8F8600000E03CE0FFF728FCC5
:1018800004463BE04746C8F86000FFF721FC0646E7
:1018900005E000BFFFF71CFC801B02282BD828683E
:1018A0008001F7D4D4E907010843A16A2E4A490808
:1018B00002EB0141626A41EA8211084394F82C105C
:1018C00040EA0161C9F8001001203866FFF700FC0A
:1018D000044606E03EE000BFFFF7FAFB001B0228CB
:1018E00009D828688001F7D534E000BFFFF7F0FB86
:1018F000001B022802D90320BDE8F88F2868800168
:10190000F4D427E00128F7D0D9F80000E26900F408
:10191000800191421CD1226A00F03F01914217D10F
:1019200047F6C071626A0140B1EB821F10D1A26A12
:101930004FF0FF3300F4403103EB5202B1EB024FA2
:1019400006D194F82C1000F07060B0EB016F01D05C
:101950000120D1E70020CFE70438024000004742D1
:10196000800E4742007000400000FFFF10B5401E8F
:10197000B0F1807F01D3012010BD4FF0E024606101
:101980000F21601701F0E8FC0020A0610720206112
:10199000002010BD7047704770B590F83C20012AB8
:1019A00032D0012480F83C40022280F83D200368B8
:1019B0005A689D6822F070060A6832435A60134BD9
:1019C00002689A4214D0B2F1804F11D0104B9A4263
:1019D0000ED0104B9A420BD00F4B9A4208D00F4BAF
:1019E0009A4205D00E4B9A4202D00E4B9A4204D135
:1019F000496825F080031943916080F83D4000213B
:101A000080F83C10084670BD022070BD0000014007
:101A10000004004000080040000C004000040140A9
:101A2000004001400018004010B5040003D094F8B5
:101A30003D0010B107E0012010BD002084F83C00FB
:101A4000204600F01FF8022084F83D00211D206888
:101A500001F0ACF8012084F8460084F83E0084F8D8
:101A60003F0084F8400084F8410084F8420084F884
:101A7000430084F8440084F8450084F83D000020C9
:101A800010BD000010B586B0044614216846FEF76C
:101A9000CFFB2A482168814226D12948016841F0BC
:101AA00001010160006800F001000590244814382D
:101AB000016841F0100101600068012100F0100090
:101AC00005904FF4804000900220CDE90101CDE95E
:101AD000030169461B48FFF7FDF9002211461B2050
:101AE000FFF75CFC1B2024E01548001FB1F1804F7C
:101AF00011D0154A91421ED1016841F010010160D8
:101B00000068002200F01000059011463620FFF713
:101B100045FC36200DE0016841F0010101600068DC
:101B2000002200F00100059011461C20FFF736FC52
:101B30001C20FFF725FC06B010BD0000000001408E
:101B400044380240001002400010004090F83D1060
:101B5000012901D001207047022180F83D10016861
:101B6000CA6842F00102CA6000681149884214D074
:101B7000B0F1804F11D00F4988420ED00E498842F3
:101B80000BD00E49884208D00D49884205D00D4936
:101B9000884202D00C49884204D1816801F00701D3
:101BA000062903D0016841F001010160002070475F
:101BB000000001400004004000080040000C00400C
:101BC00000040140004001400018004070B5044688
:101BD00090F83C000025012817D0012684F83C60CD
:101BE000022084F83D002068826822F0770222F407
:101BF0007F4282600868502838D00DDC20284FD002
:101C000005DC90B3102811D14AE0022070BD3028C5
:101C100046D040280AD13BE060282FD070280DD054
:101C2000B0F5805F03D0B0F5005F12D0012584F8D5
:101C30003D60002084F83C00284670BDCB68D1E9A7
:101C40000121206801F027F82068816841F07701C0
:101C500009E0CB68D1E90121206801F01CF8206877
:101C6000816841F480418160E1E719E0CA68496810
:101C7000206801F0E5F85021206806E0CA6849684C
:101C8000206801F02FF96021206801F00EF8CEE7FE
:101C9000CA684968206801F0D3F840212068F4E759
:101CA000226801461046F0E770B5007F082813D17E
:101CB0001948818900290FD1184A468901251368DE
:101CC0005EB10446012EA48819D0022E04D11A6CEC
:101CD000428004814181858170BD596201804180CB
:101CE0008180C180018111680B6A23F420430B625B
:101CF00011680A6A42F400520A62458170BD196C8B
:101D00000180C480196A21F42041196211680A6AAD
:101D10000A620221418170BD10000020D80000201D
:101D20002DE9F041054690F83C0000260C460128BC
:101D300010D0012085F83C0072B1042A1CD0082A7A
:101D40002CD00C2A50D00126002085F83C003046CB
:101D5000BDE8F0810220FBE7D4E90012E3682868BF
:101D600001F080F82868816921F00C018161286800
:101D70008169A26811430FE0D4E90012E368286882
:101D800001F0C2F82868816921F440618161286806
:101D90008169A26841EA02218161D5E72868D4E916
:101DA000002C277B036A016A21F480710162C169FA
:101DB00023F4206321F0030141EA0C0121F0F00C2F
:101DC00039074FF420674CEA116107EA02221A43EF
:101DD000C16102622868C16921F00C01C1612868F3
:101DE000C169A26811432BE02868D4E90021E768A3
:101DF000036AD0F820C02CF4805CC0F820C0D0F872
:101E00001CC023F420432CF4407C4CEA012121F433
:101E1000704C4FF6FF7101EA07314FF4204741EA59
:101E20000C0107EA02321A43C16102622868C169E3
:101E300021F44061C1612868C169A26841EA0221B8
:101E4000C16181E710B5040003D094F83D0010B1E2
:101E500007E0012010BD002084F83C00204600F07F
:101E60001EF8022084F83D00211D206800F09EFE2F
:101E7000012084F8460084F83E0084F83F0084F88E
:101E8000400084F8410084F8420084F8430084F85C
:101E9000440084F8450084F83D00002010BD7047E0
:101EA00030B50446002551B104290DD0082910D0C1
:101EB00094F8410094F84520012811D10EE094F8DF
:101EC0003E0094F84220F7E794F83F0094F843204E
:101ED000F2E794F8400094F84420EDE7012A01D09D
:101EE000012030BD022059B1042912D0082919D08F
:101EF00084F8410084F845000C2944D0012540E0D5
:101F000084F83E0084F842002068C26842F0020271
:101F100010E084F83F0084F843002068C26842F073
:101F2000040207E084F8400084F844002068C26896
:101F300042F00802C2600122206800F09FFE1449AE
:101F40002068884214D0B0F1804F11D011498842E6
:101F50000ED0114988420BD01049884208D0104950
:101F6000884205D00F49884202D00F49884204D1E7
:101F7000816801F00701062903D0016841F00101E1
:101F80000160284630BD2068C26842F01002D1E7E7
:101F9000000001400004004000080040000C004028
:101FA0000004014000400140001800402DE9F041CC
:101FB00004460068C66805694FF00007A90713D5F5
:101FC000B10711D5F91E01610120207720688069D1
:101FD0008007204602D0FFF767FE04E000F0A6F875
:101FE000204600F038F92777680716D5700714D512
:101FF00021686FF004000861022020772068806962
:1020000010F4407F204602D0FFF74EFE04E000F0BF
:102010008DF8204600F01FF92777280715D53007DF
:1020200013D521686FF0080008610420207720682C
:10203000C0698007204602D0FFF736FE04E000F0BA
:1020400075F8204600F007F92777E80616D5F00660
:1020500014D521686FF010000861082020772068EF
:10206000C06910F4407F204602D0FFF71DFE04E057
:1020700000F05CF8204600F0EEF82777E80708D07B
:10208000F00706D021686FF001000861204600F0DB
:1020900047F9280608D5300606D521686FF080007C
:1020A00008612046FFF776FC680608D5700606D55D
:1020B00021686FF040000861204600F049F9A80649
:1020C0000AD5B00608D521686FF0200008612046C7
:1020D000BDE8F041FFF75FBCBDE8F08110B586B008
:1020E000044614216846FEF7A3F82068B0F1804F3B
:1020F00016D10C480021026842F00202026000681A
:1021000000F0020005904FF4806000900220CDE9BD
:1021100001010120CDE9031069460348FEF7DAFE0C
:1021200006B010BD3038024000040240704770B560
:10213000044690F83C0000260D4601280FD00120EF
:1021400084F83C006AB1042A1DD0082A2FD00C2A3A
:102150003FD00126002084F83C00304670BD0220AC
:1021600070BD206800F0AAFD2068816941F0080177
:1021700081612068816921F00401816120688169A1
:102180002A69114311E0206800F0C8FD20688169C8
:1021900041F4006181612068816921F4806181617D
:1021A000206881692A6941EA02218161D2E72068B9
:1021B00000F0EAFD2068C16941F00801C1612068B2
:1021C000C16921F00401C1612068C1692A69114314
:1021D00011E0206800F00CFE2068C16941F4006144
:1021E000C1612068C16921F48061C1612068C16951
:1021F0002A6941EA0221C161ACE710B5040003D0AD
:1022000094F83D0010B107E0012010BD002084F8D3
:102210003C00204600F01EF8022084F83D00211DFD
:10222000206800F0C3FC012084F8460084F83E00DA
:1022300084F83F0084F8400084F8410084F84200AC
:1022400084F8430084F8440084F8450084F83D0095
:10225000002010BD7047704710B50446022249B1F6
:1022600004290ED0082913D094F84100012816D073
:10227000012010BD94F83E000128F9D184F83E20D9
:102280000FE094F83F000128F2D184F83F2008E0E5
:1022900094F840000128EBD184F8402001E084F854
:1022A00041200122206800F0E9FC16492068164A06
:1022B000884201D0904203D1436C43F4004343640D
:1022C0002068884213D0B0F1804F10D00F49884267
:1022D0000DD00F4988420AD00E49884207D090425B
:1022E00005D00D49884202D00C49884204D181684A
:1022F00001F00701062903D0016841F001010160E6
:10230000002010BD00000140000401400004004016
:1023100000080040000C0040004001400018004050
:1023200010B504460068B0F1804F01D1FEF7DEFA27
:1023300006492068884207D1FEF7A4FA01F04CFD57
:10234000BDE8104001F020BD10BD000000100040AD
:102350007047704770470000F8B501680446086888
:10236000CA684B6910F00F0F4FF0000559D003F009
:10237000010602F49077374365D0C10705D0D10537
:1023800003D5616C41F001016164410705D5D907AE
:1023900003D0616C41F002016164810705D5D90762
:1023A00003D0616C41F004016164010707D502F0BC
:1023B0002001314303D0616C41F008016164616C1C
:1023C00000293AD0800604D5900602D5204600F0B8
:1023D000E4FD20684069616CC0F38010090700D4F7
:1023E00060B3204600F0B2FD20684069400621D568
:1023F0002068143050E8001F21F0400140E800122E
:10240000002AF5D1E06BA8B172490165E06BFEF7D7
:102410003CFD002811D0E06B016D01B0BDE8F0403B
:10242000084783060FD593060DD52046BDE8F84032
:1024300000F0B3BD2046FFF78DFFF8BD2046FFF743
:1024400089FF6564F8BD266B2023012E7ED1C60668
:102450007CD5D6067AD508684868009048694FF060
:10246000020640064DD5E26B106840684FF4807755
:102470000004000C3AD0A18D814237D9E085D069A3
:10248000B8422DD020680C3050E8001F21F4807134
:1024900040E80012002AF5D12068143050E8001FEF
:1024A00021F0010140E80012002AF5D12068143023
:1024B00050E8001F21F0400140E80012002AF5D149
:1024C00084F84230256320680C3050E8001F21F06A
:1024D000100140E80012002AF5D1E06BFEF78CFCF9
:1024E0006663A08DE18D401A81B206E0A18D814224
:1024F000A8D1D069B842A5D166632046FFF729FF6D
:10250000F8BDA08DE18D401A81B2E08D0028F7D092
:102510000029F5D020680C3050E8002F22F490728A
:1025200040E80027002FF5D12068143050E8002F34
:1025300022F0010240E80027002FF5D184F8423054
:10254000256320680C3050E8002F00E006E022F000
:10255000100240E80023002BF3D1CDE705062BD570
:10256000150629D594F841002128C9D1A068B0F5F5
:10257000805F01D12069B0B1206A411C21622168CD
:1025800000784860E08C401E0004000CE084B7D165
:102590002068C16821F08001C1602068C16841F0F5
:1025A0004001C160F8BD206A0088C0F3080048609F
:1025B000206A801C2062E5E74006F3D55006F1D57D
:1025C000CA68204622F04002CA6084F8413000F018
:1025D000C4F8F8BD3F2F000870B5040004D094F88B
:1025E0004100002510B106E0012070BD84F8405084
:1025F000204600F023F8242084F841002068C168B8
:1026000021F40051C160204600F028FD20680169D6
:1026100021F4904101612068416921F02A01416162
:102620002068C16841F40051C1606564202084F8CD
:10263000410084F842006563002070BD10B586B08B
:10264000044614216846FDF7F3FD184920688842C6
:1026500029D117480021026842F010020260006888
:1026600000F01000059012481438026842F0010290
:102670000260006800F0010005904FF4C060009017
:102680000220CDE901010320039007200490694650
:102690000848FEF71FFC002211462520FEF77EFEAB
:1026A0002520FEF76DFE06B010BD000000100140B1
:1026B000443802400000024070472DE9F8430446C8
:1026C00090F84100984616460D46202802D0022078
:1026D000BDE8F88385B17EB100206064212084F8D4
:1026E0004100FEF7F5FCA6848146E684A068202719
:1026F000B0F5805F02D003E00120E9E7206910B166
:102700002E4600250EE000260CE08021204600F039
:102710002BFDA8B9C6B116F8010B21684860E08C02
:10272000401EE084E08C4B464FF00002CDF8008064
:102730000028EAD14FF04001204600F015FD40B1DD
:1027400084F841700320C3E735F8020BC0F308009A
:10275000E3E784F841700020BAE77047FEE7000025
:1027600010B508210548FFF777FD0C210448FFF755
:1027700097FBBDE810400348FFF7E8B920010020AF
:10278000D8000020680100207FB500241448009480
:102790000194029411490394C0E900148460012556
:1027A0000461057680F820400E49C0E90A14C5612D
:1027B000C46080F830404561FEF7E6F908B1FEF7E5
:1027C00082F80A20CDE90005694602940448FEF724
:1027D00097F8002801D0FEF776F87FBD0020014071
:1027E0003C0000200100000F2DE9F04786B01421C5
:1027F0006846FDF71DFD38480024016841F01001CE
:102800000160016801F010010591016841F080014B
:102810000160016801F080010591016841F0040147
:102820000160016801F004010591016841F00201B5
:102830000160016801F002010591016841F00801A1
:102840000160016801F008010591016841F0010192
:1028500001600068DFF8848000F001004FF400653B
:102860000590002229464046FEF72CFCDFF87090C8
:102870004FF47066002231464846FEF723FCDFF82D
:1028800064A04FF41947002239465046FEF71AFC5F
:102890006020CDE90004694613480294FEF71AFB54
:1028A00000950125CDE90154694640460394FEF7A1
:1028B00011FB0096CDE90154694648460394FEF7A2
:1028C00009FB0097CDE90154694650460394FEF791
:1028D00001FB06B0BDE8F08730380240000C024032
:1028E0000008024000000240001002400D4810B5F0
:1028F0000B4901600C49416000214FF48042816026
:10290000C0E9031241618161C1610162FEF7E6FB2A
:10291000002803D0BDE81040FDF7D5BF10BD000072
:102920000054004084000020A086010010B58AB049
:102930000024234804940594069407940894099469
:102940000094019402941D49039401604F21C0E951
:1029500001144FF6FF71C0E9031444618461FFF76D
:1029600063F808B1FDF7AFFF4FF48050049004A95D
:102970001348FFF72BF908B1FDF7A5FF1048FFF743
:1029800061FA08B1FDF79FFF089408A90C48099463
:10299000FFF702F808B1FDF796FF0120CDE90040EE
:1029A00002940C22694606480394FFF7B9F90028FF
:1029B00001D0FDF788FF0AB010BD00000000014003
:1029C000D800002010B58EB0002407940894099414
:1029D0000A940B941C2168460C94FDF729FC1E48B0
:1029E0004FF0804101604F21C0E901146321C0E92B
:1029F00003148461FFF718F808B1FDF764FF4FF482
:102A00008050079007A91448FFF7E0F808B1FDF7D8
:102A10005AFF1148FFF7F1FB08B1FDF754FF0B9483
:102A20000BA90D480C94FEF7B7FF08B1FDF74BFF5B
:102A3000602000903220CDE9010408226946064852
:102A40000494FFF774FB08B1FDF73DFF0248FFF760
:102A500045FB0EB010BD0000200100201CB5002475
:102A60000E4800940C49019401604F21C0E9011403
:102A700040F2E7318461C160FEF7D6FF08B1FDF78F
:102A800022FF0094694605480194FEF785FF00285F
:102A900001D0FDF718FF1CBD0010004068010020A8
:102AA0000C4810B50A4901604FF4E1314160002142
:102AB00081600C22C160C0E904128161C161FFF72D
:102AC0008BFD002803D0BDE81040FDF7FCBE10BD13
:102AD00000100140B0010020FEE7FEF783FDFEE795
:102AE00070477047FEF7F2BB30B593B030216846AF
:102AF000FDF79EFB14210CA8FDF79AFB1C4800254E
:102B0000016841F080510160006800F08050119030
:102B10001848016841F4804101600068022400F413
:102B20008040119001200090000401908001CDE9C7
:102B3000064008AA0420502182E813000B90684642
:102B4000FEF75EFD08B172B6FEE70CA90F2081E822
:102B500031004FF480500F90109002210CA8FEF726
:102B600051FC08B172B6FEE7FEF7E6FC13B030BDCB
:102B700040380240007000400248016841F4700192
:102B80000160704788ED00E00148FFF70FBA0000D0
:102B9000D80000200148FFF709BA000020010020FA
:102BA0000148FFF703BA000068010020F0B5026891
:102BB000274B284D284E294F294C4FF0804C9842E6
:102BC00009D0604507D0A84205D0B04203D0B84232
:102BD00001D0A04204D122F0700E4A6842EA0E02EF
:102BE00098421BD0604519D0A84217D0B04215D0EA
:102BF000B84213D0A04211D01A4DA8420ED01A4D9F
:102C0000A8420BD0194DA84208D0194DA84205D0B2
:102C1000184DA84202D0184DA84203D122F44075A5
:102C2000CA682A434D6922F080022A438D68C56232
:102C30000D688562984201D0A04201D10969016303
:102C4000016841F004010160012141610260F0BDB1
:102C5000000001400004004000080040000C00405B
:102C60000004014000400140004401400048014090
:102C700000180040001C00400020004010B501F08A
:102C80001F030121046A99408C430462016A9A403F
:102C90001143016210BD10B5846842EA032224F496
:102CA0007F440A432243826010BD826822F0700292
:102CB0000A4342F00701816070470000F0B5036AE3
:102CC000026A22F00102026242688469124E24F014
:102CD00073050C682C4323F002058B682B430D4DC4
:102CE000A84201D0B04205D123F00807CB683B438E
:102CF00023F00403A84201D0B04205D14D6922F46B
:102D0000407215438A692A4342608461496841637D
:102D10000362F0BD0000014000040140F0B5026A0A
:102D2000036A23F010030362436884690D6824F486
:102D3000E64444EA05248D6822F0200242EA0512A6
:102D40000F4D104EA84201D0B04206D1CF6822F0FC
:102D5000800242EA071222F04002A84201D0B042AB
:102D600007D14D6923F4406343EA85038D6943EA43
:102D7000850343608461496881630262F0BD00009D
:102D80000000014000040140F0B5026A036A23F428
:102D9000807303624368C46922F4007224F07305EF
:102DA0000C68124E2C438D6842EA05220E4DA84253
:102DB00001D0B04206D1CF6822F4006242EA072275
:102DC00022F48062A84201D0B04207D14D6923F4B9
:102DD000405343EA05138D6943EA05134360C46118
:102DE0004968C1630262F0BD000001400004014077
:102DF00030B5046A026A22F4805202624268C369F2
:102E00000D6823F4E64343EA05238D6824F4005457
:102E100044EA0534084DA84202D0084DA84204D126
:102E20004D6922F4804242EA85124260C3614968DA
:102E30000164046230BD0000000001400004014054
:102E400010B5036A046A24F001040462846924F062
:102E5000F00444EA021423F00A020A438461026285
:102E600010BD000070B5056A046A24F00104046214
:102E70008469154EB04214D0B0F1804F11D0134E7A
:102E8000B0420ED0124EB0420BD0124EB04208D01B
:102E9000114EB04205D0114EB04202D0104EB04299
:102EA00003D124F00304144301E044F001041A07A1
:102EB00024F0F00444EA126225F00A0301F00A014A
:102EC00019438261016270BD0000014000040040AE
:102ED00000080040000C0040000401400040014098
:102EE0000018004010B5036A046A24F0100404625C
:102EF000846923F0A00324F4704444EA023243EAD4
:102F000001118261016210BD30B5046A056A25F0C5
:102F100010050562856925F4407545EA022222F410
:102F200070454FF6FF7202EA033224F0A0032A43F1
:102F3000A02404EA011119438261016230BD10B579
:102F4000806B0021C185FFF705FA10BD01680C31C7
:102F500051E8002F22F4907241E80023002BF5D1B4
:102F60000168143151E8002F22F0010241E80023EA
:102F7000002BF5D1016B012909D101680C3151E811
:102F8000002F22F0100241E80023002BF5D1202170
:102F900080F8421000210163704708B590F8421094
:102FA000222901D0022008BD82684FF480539A4242
:102FB00001D1016921B1816A9A421BD04AB10AE06C
:102FC0000268816A5268C2F308020A80816A891C19
:102FD00008E0026972B10268526802F07F020A706A
:102FE000816A491C8162C18D491E0904090CC18591
:102FF00003D01BE002685268F1E70168CA6822F05A
:103000002002CA600168CA6822F48072CA6001683E
:103010004A6922F001024A61202180F84210002111
:103020004163026B012A03D0FFF746FB002008BD75
:10303000016301680C3151E8002F22F0100241E8D1
:103040000023002BF5D101680A68D20602D50A6870
:1030500049680091818DFFF77CF9E7E770B5044678
:1030600000680169E26821F440511143016121695E
:10307000A068E26908436169114308432168CA688E
:1030800049F20C639A430243CA6020684169A2690D
:1030900021F440711143416131492068884202D0D6
:1030A0003049884202D1FEF75DFA01E0FEF74AFAA4
:1030B000E2690023192164253226B2F5004F6268C7
:1030C00028D0A0FB0101930F9200FDF779F801468B
:1030D000B0FBF5F06FF01802504301EB800006EBF7
:1030E0000010B0FBF5F000F0F002B1FBF5F002EBE0
:1030F0000012B1FBF5F06FF01803584301EB8000AC
:1031000006EB0010B0FBF5F000F00F002168104452
:10311000886070BDA0FB010192185B41FDF750F87B
:103120000146B0FBF5F00201B1FBF5F06FF01803BA
:10313000584301EB800006EBC000B0FBF5F000F057
:10314000F80002EB4002B1FBF5F0584301EB8000C0
:1031500006EBC000B0FBF5F000F00700D6E700007A
:1031600000100140001401402DE9F843984617462D
:103170000D460446089E24E0701C22D0FDF7A8FFEF
:10318000A0EB0800B0421AD8CEB12068C168490748
:1031900017D5802D15D0402D13D00168C9430907DC
:1031A0000FD401680025406800902046FFF7CEFE4E
:1031B0000820606484F840500120BDE8F8830320B3
:1031C000FBE72068006835EA000004D00020B84220
:1031D000D2D00020F1E70120F9E700000148FFF715
:1031E000BBB80000B00100204FF0640270B5B0FB26
:1031F000F2F34FF00A02B3FBF2F402FB1434B0FB1B
:10320000F2F3B3FBF2F64FF47A71B0FBF1F102FB8B
:103210001633B0FBF2F611F0FF050A4902FB160265
:103220000D704C708B70CA700BD1FF220A7064282D
:1032300007D2002C05D14A700A2802D2002B00D1F7
:103240008A7070BD31000020FEE700002DE9F05FBC
:103250002C4E15460C4680464FF4805B00225946A2
:103260003046FDF72FFFFF2C06D0274904F00F0052
:103270000C5C1DB1802002E0002401E0002004432A
:10328000DFF888A000254FF400674FF48079002212
:1032900039463046FDF716FFE20949465046FDF72C
:1032A00011FF6006040E012239463046FDF70AFF81
:1032B0006D1CEDB2082DEAD300224C46494630463B
:1032C000FDF700FF012221463046FDF7FBFE08F026
:1032D00001024FF400413046FDF7F4FEC8F340020E
:1032E0004FF4806154465046FDF7ECFE002239460B
:1032F0002046FDF7E7FE59463046BDE8F05F012263
:10330000FDF7E0BE000002408A3E000800080240CF
:103310000FB4054B10B503A9044A029800F0FEF85B
:1033200010BC5DF814FB0000C13D0008380000200F
:103330000FB4084B10B504A902AA039800F0EEF8E8
:10334000044602A9002000F080FC204610BC5DF875
:1033500014FB00004B3C00080907090E002804DBA1
:1033600000F1E02080F80014704700F00F0000F139
:10337000E02080F8141D704702E008C8121F08C141
:10338000002AFAD170477047002001E001C1121FE6
:10339000002AFBD1704700002DE9FF5F82B00021B9
:1033A000DDE90430020DDDF840B0034318D044F6E7
:1033B0001050A2F2FF3242431514119801281FD079
:1033C000A5EB0B00401C5FEA000A4FF000064E4FD1
:1033D000DFF83891B046504615D5CAF1000413E025
:1033E000119801244AA3012801D16FEA0B01029828
:1033F000119AC0E90031C0E9024206B0BDE8F09F71
:10340000CBF10000DFE704460021404A491842EBB7
:103410000450CDE9001012E0E00707D032463B46E9
:1034200040464946FCF7FEFF8046894632463B4609
:1034300010461946FCF7F6FF06460F466410002CAE
:10344000EAD1DDE90401DDE90023BAF1000F06DA73
:10345000FCF7E8FF42464B46FCF7E4FF05E0FDF7CA
:1034600053F842464B46FDF74FF804460E460022FD
:10347000284BFDF7D1F803D84FF0FF30014607E0A5
:103480000022254B20463146FCF725FFFDF7ABF81F
:10349000102409E0002C0ADB0A220023FCF790FE2E
:1034A000039B30321A55641E50EA0102F2D1641CAB
:1034B000039AC4F111031444119A012A03D0012282
:1034C00008430DD10AE0084304D000204FF0110B4F
:1034D000119072E7A3EB0B056D1E0DE05B4504DD5B
:1034E0004FF0000205F1010504E003DA4FF000029D
:1034F000A5F10105002AECD002981199C0E902312A
:10350000C0E9004579E70000000014400000F03FEA
:10351000300000000000F0430000E03F2DE9FF4FC5
:1035200095B09B468946064600250FE2252877D1AF
:1035300000242746F84A0121059400E0044316F8C8
:10354000013F203B01FA03F01042F7D130782A28DE
:1035500011D06FF02F033078A0F13002092A16D86D
:10356000059A44F0020402EB820203EB420210448B
:10357000761C0590EFE759F8042B0592002A03DA30
:10358000504244F40054059044F00204761C307814
:103590002E2816D116F8010F44F004042A280DD065
:1035A0006FF02F023078A0F13003092B09D807EB18
:1035B000870302EB4303C718761CF3E759F8047B33
:1035C000761C30786C280FD006DC4C2817D0682881
:1035D0000DD06A2814D104E0742810D07A280FD1B5
:1035E0000DE044F400140AE044F4801401E044F4D3
:1035F00040147278824202D104F58014761C761C45
:10360000307866280BD013DC582877D009DC0028E6
:1036100075D04528F6D04628F4D047281AD19DE128
:1036200018E0632835D0642879D0652812D195E157
:10363000702873D008DC6728F1D069286FD06E2815
:103640000DD06F2806D1B5E073282CD0752875D021
:10365000782874D05A46179990476D1C75E1C4F3C9
:103660000250022809D003280DD0D9F800100428F0
:103670000DD00D6009F1040967E1D9F80010EA17CF
:10368000C1E90052F6E7D9F800100D80F2E70D709D
:10369000F0E719F8041B8DF8001000208DF80100E8
:1036A000EA46012003E059F804AB4FF0FF30610710
:1036B0004FF0000102D40DE008F101018846B94243
:1036C0000FDA8045F8DB1AF808100029F4D108E079
:1036D00008F1010188468142FADB1AF80810002936
:1036E000F6D105985B46A0EB080721463846179AA5
:1036F00000F094FA284400EB080507E04DE029E1CA
:103700000DE01AF8010B5A4617999047B8F10108D5
:10371000F7D25B4621463846179A13E142E00A2267
:103720000092C4F302524FF0000A022A08D059F85E
:1037300004CB032A4FEAEC710AD00DE029E02AE01D
:1037400009F1070121F00702F2E802C1914609E000
:103750000FFA8CFC4FEAEC71042A03D14FFA8CFC6F
:103760004FEAEC71002907DA0A460021DCF1000C6F
:1037700061EB02012D2202E0220504D52B228DF8F7
:103780000420012203E0E20701D02022F7E790465F
:1037900059E00A2102E010220DE010214FF0000A4A
:1037A00000910BE010224FF0000A44F004040827B7
:1037B000009203E008224FF0000A0092C4F3025284
:1037C000022A05D059F804CB0021032A08D009E0C9
:1037D00009F1070121F00702F2E802C1914605E074
:1037E0001FFA8CFC042A01D10CF0FF0C4FF00008EA
:1037F000220728D5702806D0009B83F0100353EAD7
:103800000A0305D00EE040228DF80420012208E0D2
:103810005CEA010206D030228DF804208DF8050004
:1038200002229046009B83F0080353EA0A030AD160
:103830005CEA010201D1620705D530228DF804202F
:103840004FF001087F1E582804D034A003900EA822
:1038500002900DE036A0F9E753466046009AFCF767
:10386000AFFC84460398825C0298401E029002706E
:103870005CEA0100F0D1029806A9081A00F1200ABA
:10388000600702D524F4803400E00127574502DDAB
:10389000A7EB0A0000E0002000EB0A010090059869
:1038A0004144401A0590E00306D45B462146179A2E
:1038B000059800F0B3F90544002706E001A85A4630
:1038C000C05D179990476D1C7F1C4745F6DBE003F0
:1038D0000CD55B462146179A059800F09FF90544E0
:1038E00004E030205A46179990476D1C0099481EF5
:1038F00000900029F5DC08E0029802995A46007809
:10390000491C0291179990476D1CBAF10001AAF168
:10391000010AF1DC65E10000092801003031323391
:1039200034353637383961626364656600000000FB
:1039300030313233343536373839414243444546E5
:103940000000000000F058F90544761C307800288B
:103950007FF4ECAD19B02846BDE8F08F620700D4C3
:10396000062709F1070222F0070CFCE80223E146D2
:1039700003F000485FEA080C02D00FF2702C0DE053
:103980005FEA045C02D50FF2682C07E05FEAC47CB2
:1039900002D00FF2602C01E0AFF2700C4FF0FF3854
:1039A00023F00043CDF850C065280CD006DC452834
:1039B00009D046281DD047283DD13DE0662818D0C3
:1039C00067287ED138E00021112F01DB112000E0B3
:1039D000781CCDE9000106A90EA8FFF7DDFCDDE9A2
:1039E0000F010E9A03910021009207F1010A049140
:1039F0004DE04FF000400097CDE9011006A90EA858
:103A0000FFF7CAFCDDE90F0203920E9B1199002219
:103A1000DDF80CA00093049211B9791C00EB010AA7
:103A2000B7EB0A0004D4C0F1FF3007F1010A04909B
:103A3000AAEB0700019044E0012F00DA01270021E2
:103A4000112F01DD112000E03846CDE9000106A963
:103A50000EA8FFF7A1FCDDE90F010E9A03910021EA
:103A600004910092BA4621070CD40399514500DA1B
:103A70008A46BAF1010F05DD009AAAF10101515CF5
:103A8000302908D0B84202DA10F1040F06DA012119
:103A9000CDE9011015E0AAF10101E9E7002805DCF4
:103AA000049901440491AAEB000102E0411C514534
:103AB00000DD8A460499401A401C01904FF00040F6
:103AC0000290200704D40198504501DBCDF8048012
:103AD00000208DF84F0002980DF14F07B0F1004F14
:103AE00025D02B200E9002984FF0020800280CDA07
:103AF000404202902D200E9007E00A210298FCF728
:103B0000B5FB3031029007F8011DB8F10001A8F1B2
:103B10000108F2DC02980028EFD1791E0E98087097
:103B2000307800F0200040F0450007F8020D12A8A0
:103B3000C01B00F107081498007800B1012000EBC9
:103B40000A01019801EBE07105984144401A401EBA
:103B50000590E00306D45B462146179A059800F0CD
:103B60005DF805441498007818B15A4617999047A3
:103B70006D1CE00324D55B462146179A059800F09A
:103B80004DF805441CE00498002807DBDDE903013B
:103B9000884203DD0098405C179901E017993020B6
:103BA0005A469047049805F10105401C049001987D
:103BB000401E019004D12E205A46179990476D1C43
:103BC000BAF10001AAF1010ADDDC05E017F8010BEA
:103BD0005A46179990476D1CB8F10001A8F10108E9
:103BE000F4DC5B462146179A0598ABE62D000000F1
:103BF0002B000000200000002DE9F04104460025C4
:103C00001E461746880404D405E039462020B047F4
:103C10006D1C641EF9D52846BDE8F0812DE9F04100
:103C2000044600251E469046C80301D5302700E013
:103C30002027880404D505E041463846B0476D1C6E
:103C4000641EF9D52846BDE8F0810A68531C0B6054
:103C5000107070479EB0FEF783FDDFF88880DFF8B4
:103C600088B0DFF888A0DFF88890224922A0FFF70B
:103C70004FFB98F8001026A0FFF74AFBD9F8000088
:103C8000FCF7E1FA06460F46DBF80000FCF7DBFA2A
:103C900004460D46DAF80000FCF7D5FA41EC100BAB
:103CA0008DE8F00053EC102B1EA104A8FFF740FB99
:103CB00004A8FFF72DFB98F80000022807D399ED20
:103CC000000ABCEEC00A10EE100A80B200E000202C
:103CD000FFF78AFAFCF7FAFD4FF4FA70FDF7E8F8FF
:103CE000C3E700002C00002024000020200000205A
:103CF00028000020F80100200D0A41444320E58EF1
:103D00009FE5A78BE580BC3A2025730A00000000E0
:103D1000E799BEE58886E6AF943A20256425250A12
:103D2000000000000D0AE9A291E78E87203D2025C2
:103D30002E326620487A0DE58DA0E7A9BAE6AF9449
:103D4000203D20252E32662025250D0A52504D207B
:103D50003D20252E32660D0A0000000010B50948EE
:103D6000FCF7CCFF64210748FCF772FF0548FCF71D
:103D70006FFE800504D50348FCF76CFE80B210BDD1
:103D8000002010BD3C00002010B500224FF48051EF
:103D90000948FDF797F9094900224C1E2078095C73
:103DA000FFF754FA2078401CC0B22070042801D3D9
:103DB0000020207010BD00000000024031000020F3
:103DC00013B54FF0FF33012269460248FEF775FC38
:103DD00000981CBDB00100201848818900292BD013
:103DE0000188C288DFED160A01EB0241491C00EE92
:103DF000101A41880289B8EEC00A01EB0241491C41
:103E000060EE200A00EE101AB8EEC00A80EE801AAA
:103E100000EE101A0021F8EEC00A80ED051A9FEDA1
:103E2000091A81EE200AF3EE0E0A80ED040A20EE54
:103E3000200A80ED060A81817047000010000020F2
:103E40000000C84200247449FDF748FAFEF74CFE12
:103E5000FEF7CAFCFEF7B6FDFEF796FCFEF720FE65
:103E6000FEF764FDFEF742FDFEF7F8FDFFF7F2FEF8
:103E7000FCE7000000000000000001020304060748
:103E8000080900000000010203043F065B4F666D55
:103E90007D077F6F777C395E79710000BC3E00083A
:103EA000000000203C00000078330008F83E0008C5
:103EB0003C000020E40500008833000801000000F9
:103EC00010000000000000000024F40000000000CA
:103ED00000000000000000000000000000000000E2
:103EE00000000000000000000000000000000000D2
:083EF0000000000000000000CA
:040000050800018965
:00000001FF
